:060000000A128A11122809
:10000800FE00030E83120313AE000408AF000A08B3
:10001800B0007F08B1000A168A11FF2D0A128A1152
:100028001528FC01FD0183134D3084005E300A124F
:100038008A1500200A128A1183010A128A11C32E16
:10004800831603132F088039B9002F08B40034072A
:10005800BF00AE1F3028312832283F143F0803194B
:100068003628372846283F0A031D3B283C284428C1
:100078000030AF000030AE000030AD000030AC0002
:10008800AE174E280030AF000030AE000030AD0093
:100098000030AC0033088039B4003408B90633089E
:1000A800B4003407BA00B21F5A285B285C283A14F7
:1000B8003A0803196028612870283A0A031D652840
:1000C80066286E280030B3000030B2000030B1005E
:1000D8000030B000B21778280030B3000030B2000A
:1000E8000030B1000030B0003A0803197C287D28A0
:1000F80082283F08031D812882288B280030AF0002
:100108000030AE000030AD000030AC00C22B2C082F
:1001180083120313B2008316031332080A168A11D6
:10012800D6250A128A118312031333088316031380
:10013800C50083120313320883160313C40044084E
:10014800B400B501B601B7013708BE003608BD00D6
:100158003508BC003408BB004508B400B501B60139
:10016800B7013708C3003608C2003508C100340893
:10017800C0002D0883120313B2008316031331083D
:100188000A168A11D6250A128A1183120313330814
:1001980083160313C500831203133208831603134F
:1001A800C4004408B400B501B601B7013408BB0760
:1001B800350803110318013E0319E328BC07360864
:1001C80003110318013E0319EA28BD073708031174
:1001D8000318013E0319F128BE074508B400B5010C
:1001E800B601B7013408C007350803110318013EEA
:1001F8000319FF28C107360803110318013E031924
:100208000629C207370803110318013E03190D29EF
:10021800C3072E0883120313B20083160313300892
:100228000A168A11D6250A128A1183120313330873
:1002380083160313C50083120313320883160313AE
:10024800C4004408B400B501B601B7013408BB07BF
:10025800350803110318013E03193329BC07360872
:1002680003110318013E03193A29BD073708031182
:100278000318013E03194129BE074508B400B5011A
:10028800B601B7013408C007350803110318013E49
:1002980003194F29C107360803110318013E031932
:1002A8005629C207370803110318013E03195D29AF
:1002B800C3070830B4000310BB0DBC0DBD0DBE0D47
:1002C800B40B5F292D0883120313B200831603139E
:1002D80030080A168A11D6250A128A1183120313C6
:1002E800330883160313C5008312031332088316D9
:1002F8000313C4004408B4004508B500B601B701AB
:100308003408BB07350803110318013E03198D296A
:10031800BC07360803110318013E03199429BD07C9
:10032800370803110318013E03199B29BE072C083F
:1003380083120313B2008316031331080A168A11B5
:10034800D6250A128A11831203133308831603135E
:10035800C50083120313320883160313C40044082C
:10036800B4004508B500B601B7013408BB07350825
:1003780003110318013E0319C229BC0736080311EB
:100388000318013E0319C929BD07370803110318CB
:10039800013E0319D029BE070830B4000310BB0D75
:1003A800BC0DBD0DBE0DB40BD2292C08831203134E
:1003B800B2008316031330080A168A11D6250A12CA
:1003C8008A1183120313330883160313C50083129B
:1003D8000313320883160313C4004408B400450805
:1003E800B500B601B7013408BB0735080311031877
:1003F800013E0319002ABC07360803110318013E01
:100408000319072ABD07370803110318013E03190A
:100418000E2ABE072D0883120313B2008316031396
:1004280032080A168A11D6250A128A118312031372
:10043800330883160313C500831203133208831687
:100448000313C4004408B4004508B500B601B70159
:100458003408C007350803110318013E0319352A6B
:10046800C107360803110318013E03193C2AC207C5
:10047800370803110318013E0319432AC3072E083E
:1004880083120313B2008316031331080A168A1164
:10049800D6250A128A11831203133308831603130D
:1004A800C50083120313320883160313C4004408DB
:1004B800B4004508B500B601B7013408C0073508CF
:1004C80003110318013E03196A2AC10736080311EC
:1004D8000318013E0319712AC207370803110318CC
:1004E800013E0319782AC3072E0883120313B200AA
:1004F8008316031332080A168A11D6250A128A119E
:1005080083120313330883160313C50083120313DE
:10051800320883160313C4004408B4004508B50024
:10052800B601B70108300310B40DB50DB60DB70DFF
:10053800FF3E031D972A3408C00735080311031826
:10054800013E0319A82AC107360803110318013E02
:100558000319AF2AC207370803110318013E03190C
:10056800B62AC3073B08B4003C08B5003D08B600EE
:100578003E08B70018300310B70CB60CB50CB40C15
:10058800FF3E031DBF2A3408C007350803110318AE
:10059800013E0319D02AC107360803110318013E8A
:1005A8000319D72AC207370803110318013E031994
:1005B800DE2AC3070830B4000310BB0DBC0DBD0D07
:1005C800BE0DB40BE02A3F083A07B400B501B50DDB
:1005D8003408823EC40035080318013EFF3EC500BA
:1005E800122B0130B4000310C00DC10DC20DC30D94
:1005F800B40BF72ABE1F012B022B032B401401302A
:10060800B4000310BB0DBC0DBD0DBE0DB40B052B06
:10061800FF30C4070318C50AFF30C507C21F152BD2
:10062800162BF52ABA01BE1F1A2B1B2B372BFF30AE
:100638003B05B400FF303C05B500FF303D05B60072
:100648007F303E05B70037083604350434040319F3
:100658002E2B2F2B322BBA01BA0A372B401C352BE5
:10066800362B372B2F2B3A0803193B2B3C2B6D2BA2
:100678000130C007003003180130C10700300318EB
:100688000130C207003003180130C307431C4D2B4B
:100698004E2B6D2B4008B4004108B5004208B60047
:1006A8004308B7000130B800370DB70CB60CB50CCD
:1006B800B40CB80B582B3708C3003608C2003508ED
:1006C800C1003408C0000130C4070318C50A00304F
:1006D800C5074508803AFF0080307F02031D762B4E
:1006E800FF304402031C792B7A2B852B7F3083162D
:1006F8000313C3008030C2000030C1000030C000C6
:10070800B62B831603134508803AFF0080307F021A
:10071800031D902B013044020318932B942BA02B1C
:10072800003083160313C3000030C2000030C1003C
:100738000030C000B901B62B831603134408BF006C
:10074800FF30C005FF30C1057F30C2050030C3054A
:100758003F1CAF2BB02BB12BC2173F08B4000310BE
:10076800340CC3003908B4003408C3044308AF008C
:100778004208AE004108AD004008AC0008008312F2
:1007880003133E08803983160313A0008312031352
:100798003E08C300430783160313A2008312031302
:1007A800BD1FD72BD82BDB2B8316031322148316DC
:1007B800031322080319E12BE22BF52B220A031D50
:1007C800E62BE72BF12B003083120313BE00003019
:1007D800BD000030BC000030BB008312BD17BE0155
:1007E800FF2B003083120313BE000030BD00003021
:1007F800BC000030BB004208803983160313A100F7
:10080800210820060319092C0A2C0B2C2017831207
:1008180003134208C300430783160313A10083127E
:100828000313C11F182C192C1C2C83160313211415
:100838008316031321080319222C232C362C210A92
:10084800031D272C282C322C003083120313C200DE
:100858000030C1000030C0000030BF008312C11753
:10086800C201402C003083120313C2000030C100C3
:100878000030C0000030BF00831603132208210295
:100888000318472C482C942C201F4B2C4C2C542CF0
:10089800803083120313C300430883160313A00692
:1008A8002208A3002108A2002308A1008312031331
:1008B8003B0883160313A300831203133F08BB00EE
:1008C80083160313230883120313BF003C088316FF
:1008D8000313A300831203134008BC0083160313F9
:1008E800230883120313C0003D0883160313A300D3
:1008F800831203134108BD008316031323088312D0
:100908000313C1003E0883160313A30083120313C5
:100918004208BE0083160313230883120313C20080
:1009280083160313A301210883120313C300C40110
:100938004408C600831603132208831203134302D4
:10094800C500031CC6034608803AFF0080307F02BA
:10095800031DB02C1A304502031CB32CB42CFC2CFC
:10096800831203133E083D043C043B04031DBD2CC5
:10097800BF2C0130C02C003083160313A3000030B5
:1009880083120313BE000030BD000030BC000030ED
:10099800BB00831603132108A200042D231CD52CA9
:1009A800D62CE12C230883120313C3000310430C35
:1009B800013883160313A300E32C0310A30C83123E
:1009C80003133B1CE82CE92CEC2C83160313A31708
:1009D80001308312C3003E0DBE0CBD0CBC0CBB0C19
:1009E800C30BEF2C0130C300430883160313A2077F
:1009F8008316031321082202031C032D042DD22C75
:100A0800201B072D082D622D2208031D0C2D0D2DEE
:100A1800182D003083120313BE000030BD000030D3
:100A2800BC000030BB00C22E831203133F08BB0773
:100A3800400803110318013E0319232DBC07410880
:100A480003110318013E03192A2DBD07420803119B
:100A58000318013E0319312DBE073E1C342D352DD8
:100A6800282E83160313231C3A2D3B2D462D2308CD
:100A780083120313C3000310430C013883160313B6
:100A8800A300482D0310A30C831203133B1C4D2D08
:100A98004E2D512D83160313A31701308312C30063
:100AA8003E0DBE0CBD0CBC0CBB0CC30B542D013051
:100AB800C300430883160313A207282E83120313C7
:100AC8003E08803AFF004208803A7F02031D762DD7
:100AD80041083D02031D762D40083C02031D762D7A
:100AE8003F083B020318792D7A2DD62DFF30C3001D
:100AF800FF30C400FF30C500FF30C6003F08C70004
:100B08004008C8004108C9004208CA003B08C7029B
:100B18003C08031C3C0F912D922DC8023D08031C74
:100B28003D0F972D982DC9023E08031C3E0F9D2DA1
:100B38009E2DCA024708C30748080318480FA52D69
:100B4800A62DC40749080318490FAB2DAC2DC507BE
:100B58004A0803184A0AC6074608BE004508BD00E9
:100B68004408BC004308BB008030C3004308831618
:100B78000313A006A309A30A2308031DC42DC52D2A
:100B8800E42D013083120313BB0700300318013032
:100B9800BC07003003180130BD07003003180130CE
:100BA800BE07E42D3F08BB024008031C400FBC02EF
:100BB8004108031C410FBD024208031C420FBE023C
:100BC80083123E083D043C043B04031DEC2DED2D2F
:100BD800232E831603132308031DF32DF42D232E30
:100BE800003083120313BE000030BD000030BC008B
:100BF8000030BB00C22E0130C3000310BB0DBC0D7A
:100C0800BD0DBE0DC30B012E83160313A31F0D2E9E
:100C18000E2E112E831203133B1483160313231C69
:100C2800162E172E1A2E0314A30D1C2E0310A30D17
:100C380022080319202E212E232E0130A20283120E
:100C4800BD1F272E282EFF2D83160313A101A31FD6
:100C58002E2E2F2E412E23087F390319342E352EA0
:100C68003A2E83160313A101A10A412E83120313FE
:100C78003B1C3F2E402E412E352E83160313210890
:100C88000319472E482E842E013083120313BB0705
:100C9800003003180130BC07003003180130BD07CD
:100CA800003003180130BE073E1C5B2E5C2E842EDC
:100CB8003B08C3003C08C4003D08C5003E08C60008
:100CC8000130C700460DC60CC50CC40CC30CC70BBD
:100CD800662E4608BE004508BD004408BC0043080F
:100CE800BB0083160313220A03197B2E7C2E842E45
:100CF800013083120313C300430883160313A207AA
:100D080083160313220A03198A2E8B2E902E22088B
:100D1800031D8F2E902EA22E003083120313BE00C7
:100D28000030BD000030BC000030BB008316031348
:100D38002208031DA02EA12EA22EA001221CA52E42
:100D4800A62EAA2E83120313BD17B02E7F3083124E
:100D58000313C3004308BD05831603132208831237
:100D68000313C3000310430CBE0083160313A01F14
:100D7800BE2EBF2EC22E83120313BE1708000A16FA
:100D88008A114F250A128A110A128A11B7270A12E4
:100D98008A11003083120313B200B3000A128A15B5
:100DA80031240A128A11803083120313C1002530BE
:100DB800C2000A168A11E3260A128A110A168A1133
:100DC800EE240A128A1183120313B801B80A0130FB
:100DD8000A168A118B250A128A1118300A168A11E6
:100DE800AD250A128A1183120313B801B80A02301A
:100DF8000A168A118B250A128A11433083160317A3
:100E0800A300FA30A2000030A1000030A00000309A
:100E18009F0000309E0000309D0000309C00433051
:100E28009B007F309A000030990000309800003015
:100E3800970000309600003095000030940083122F
:100E480003131E0883160317A400A501A601A70112
:100E5800270883120313B500831603172608831285
:100E68000313B40083160317250883120313B30072
:100E780083160317240883120313B20000300A12E2
:100E88008A1577230A128A118312031335088316E9
:100E98000317930083120313340883160317920071
:100EA8008312031333088316031791008312031365
:100EB80032088316031790000A128A15EE240A12C4
:100EC8008A1183160317130883160313EB0083167E
:100ED8000317120883160313EA0083160317110871
:100EE80083160313E90083160317100883160313E8
:100EF800E8000A128A154C220A128A118316031373
:100F0800690883120313D200831603136808831237
:100F18000313D1005208C3005108C2000A128A15EF
:100F28004F210A128A1124300A168A11AD250A1295
:100F38008A11831203134E08C3004D08C2000A1217
:100F48008A1571200A128A11063083160317A50024
:100F58002F30A400A40BAE2FA50BAE2FB32FE22E7B
:100F68000A128A11122800300A128A15C2210A129E
:100F78008A11343083120313B900F130B800B80B6A
:100F8800C32FB90BC32F30300A168A1133250A1222
:100F98008A110D3083120313B900FB30B800B80B67
:100FA800D32FB90BD32F30300A168A1133250A12E2
:100FB8008A11413083120313B800B80BE12FE42FD4
:100FC80038300A168A1133250A128A110C300A168B
:100FD8008A1133250A128A1101300A168A1133251B
:100FE8000A128A1106300A168A1133250A128A1142
:020FF8000800EF
:1010000064008001840A04060319003404060128E0
:1010100083120313BF01BA1F0E280F281628B9091F
:10102000BA09B90A0319BA0ABF01BF0ABC1F1928B5
:101030001A282328BB09BC09BB0A0319BC0A0130C2
:10104000BD003D08BF06C001C10139083A040319BB
:101050002A282B286228BE01BE0A39280130031035
:10106000B90DBA0DFF3E031D2F280130BD003D080C
:10107000BE07BA1F3C283D282E2801300310C00DA2
:10108000C10DFF3E031D3E283A083C02031D4A28BD
:1010900039083B02031C4D284E2855283908BB024D
:1010A0003A08031CBC03BC02401401300310BA0C04
:1010B000B90CFF3E031D56280130BE02031D6128F6
:1010C00062283D283F080319662867286C28C00954
:1010D000C109C00A0319C10A4108BA004008B90091
:1010E0000800643083120313B9000030BA004308CB
:1010F000BC004208BB000A128A1508200A128A1591
:10110000831203133908303EC4003A080318013E25
:10111000003EC5000A30B9000030BA004308B500EF
:101120004208B4006430B2000030B3000A168A11DD
:101130003C270A128A15831203133308BC003208B5
:10114000BB000A128A1508200A128A15831203139B
:101150003908303EC6003A080318013E003EC70079
:101160000A30B2000030B3004308B5004208B400B2
:101170000A168A113C270A128A15831203133208B1
:10118000303EC80033080318013E003EC900440841
:101190000A168A1101250A128A15831203134608BA
:1011A0000A168A1101250A128A15831203134808A8
:1011B0000A168A1101250A128A1508006430F70000
:1011C0000030F800831203132508FA002408F90000
:1011D0000A168A1197270A128A157708303E831259
:1011E0000313A60078080318013E003EA7000A304A
:1011F000F7000030F8002508F3002408F2006430FE
:10120000F0000030F1000A168A118A260A128A15A7
:101210007108FA007008F9000A168A1197270A1255
:101220008A157708303E83120313A8007808031844
:10123000013E003EA9000A30F0000030F100250810
:10124000F3002408F2000A168A118A260A128A1567
:101250007008303E83120313AA0071080318013E80
:10126000003EAB0026080A168A11E4240A128A15E9
:101270002E300A168A11E4240A128A1583120313E7
:1012800028080A168A11E4240A128A158312031305
:101290002A080A168A11E4240A128A150800643002
:1012A00083120313B9000030BA004308BC0042089F
:1012B000BB000A128A1508200A128A15831203132A
:1012C0003908303EC4003A080318013E003EC5000C
:1012D0000A30B9000030BA004308B5004208B40033
:1012E0006430B2000030B3000A168A113C270A129B
:1012F0008A15831203133308BC003208BB000A129C
:101300008A1508200A128A15831203133908303E01
:10131000C6003A080318013E003EC7000A30B2007A
:101320000030B3004308B5004208B4000A168A1121
:101330003C270A128A15831203133208303EC80074
:1013400033080318013E003EC90044080A168A11FA
:1013500001250A128A152E300A168A1101250A1251
:101360008A158312031346080A168A1101250A12E8
:101370008A158312031348080A168A1101250A12D6
:101380008A15080083120313B40083160313860121
:101390000130831203133405B20006083206FE3909
:1013A000320686003408B2000310320C0139B30053
:1013B000B30D06083306FD39330686003408B20043
:1013C00002300310B20CFF3E031DE129320801393F
:1013D000B300B30DB30D06083306FB3933068600A0
:1013E0003408B20003300310B20CFF3E031DF32992
:1013F00032080139B300B30DB30DB30D060833063F
:10140000F739330686003408B20004300310B20CFA
:10141000FF3E031D062A32080139B300B30E060849
:101420003306EF39330686003408B2000530031066
:10143000B20CFF3E031D172A32080139B300B30E68
:10144000B30D06083306DF39330686003408B200D0
:1014500006300310B20CFF3E031D292A3208013961
:10146000B300B30EB30DB30D06083306BF39330610
:1014700086003408B20007300310B20CFF3E031D93
:101480003C2A32080139B300B30CB30C060833060A
:101490007F393306860008000310831603136A0D94
:1014A0006B0D83120313CC004C08031D582A592AD4
:1014B000642A003083160313EB000030EA0000308A
:1014C000E9000030E800D92A831603136808EC000D
:1014D0006908ED006A08EE006B08EF001F3003108A
:1014E000EF0CEE0CED0CEC0CFF3E031D6F2A6C08AC
:1014F00083120313CB0083160313EA17FF30E805AA
:10150000FF30E905FF30EA050030EB059630831225
:101510000313CC02CC1F8D2A8E2AAC2A4C08803AA9
:10152000973E0318942A952A962A592A01300310C7
:1015300083160313EB0CEA0CE90CE80CFF3E031DC9
:10154000972A0130EC006C0883120313CC07031DAB
:10155000AA2AAB2A962AC72A20304C02031CB12A99
:10156000B22AC22A592A013083160313EC00031051
:10157000E80DE90DEA0DEB0DEC0BB72A01308312F3
:101580000313CC024C08031DC62AC72AB32A4B08F2
:101590000319CB2ACC2AD92A83160313E809E909AF
:1015A000EA09EB09E80A0319E90A0319EA0A031927
:1015B000EB0A080083120313BC01B51FE02AE12ADD
:1015C000EE2AB209B309B409B509B20A0319B30A7C
:1015D0000319B40A0319B50ABC01BC0AB91FF12AE0
:1015E000F22A012BB609B709B809B909B60A0319D5
:1015F000B70A0319B80A0319B90A0130BA003A0840
:10160000BC060030C0000030BF000030BE0000301B
:10161000BD0035083404330432040319102B112B98
:101620005E2BBB01BB0A212B0130BA000310B20DA7
:10163000B30DB40DB50DBA0B162B0130BA003A0834
:10164000BB07B51F242B252B142B0130BA00031028
:10165000BD0DBE0DBF0DC00DBA0B272B35083902CD
:10166000031D3C2B34083802031D3C2B3308370282
:10167000031D3C2B32083602031C3F2B402B4F2B03
:101680003208B6023308031C330FB7023408031CB8
:10169000340FB8023508031C350FB9023D14013070
:1016A0000310B50CB40CB30CB20CFF3E031D502B51
:1016B0000130BB02031D5D2B5E2B252B3C0803195B
:1016C000622B632B6E2BBD09BE09BF09C009BD0A81
:1016D0000319BE0A0319BF0A0319C00A4008B5005E
:1016E0003F08B4003E08B3003D08B2000800831272
:1016F0000313BA003A0803197E2B7F2B932BB51FD7
:10170000822B832B932B3209BC003309BD00340993
:10171000BE003509BF00BC0A0319BD0A0319BE0A81
:101720000319BF0A9B2B3508BF003408BE003308DD
:10173000BD003208BC003508340433043204031DF4
:10174000A22BA32BAC2B0030B5000030B40000302E
:10175000B3000030B200302C9630BB00BC2B0130FF
:10176000B6003608BB0701300310BF0CBE0CBD0C21
:10177000BC0CFF3E031DB42BFE303F05031DC12BE7
:10178000C22BAF2BDE2B0130B6003608BB07013071
:10179000BC07003003180130BD07003003180130CA
:1017A000BE07003003180130BF0701300310BF0C23
:1017B000BE0CBD0CBC0CFF3E031DD62BFF303F05FD
:1017C000031DE32BE42BC32BF02B0130BB020130B4
:1017D000B6000310BC0DBD0DBE0DBF0DB60BE92B41
:1017E000BE1BF32BF42BFA2B02303B020318F92B10
:1017F000FA2BE52B3B18FD2BFE2B062CFF30BC05EE
:10180000FF30BD057F30BE05FF30BF050310BB0CA8
:101810003B08B600B701B801B90118300310B60D86
:10182000B70DB80DB90DFF3E031D0E2C3608BC04D4
:101830003708BD043808BE043908BF043A08031944
:10184000222C232C282CB51F262C272C282CBF1704
:101850003F08B5003E08B4003D08B3003C08B200A4
:101860000800831203130C13831603130C170B17B2
:10187000B32C01308316031788000130831603133D
:101880008500C330831203139F05D42C02308316C6
:101890000317880002308316031385008312031395
:1018A0001F08C33904389F00D42C04308316031753
:1018B00088000430831603138500831203131F0866
:1018C000C33908389F00D42C0830831603178800CA
:1018D0000830831603138500831203131F08C339CE
:1018E0000C389F00D42C103083160317880020304A
:1018F000831603138500831203131F08C33910389E
:101900009F00D42C203083160317880001308316E3
:1019100003138900831203131F08C33914389F006F
:10192000D42C40308316031788000230831603132B
:101930008900831203131F08C33918389F00D42C61
:101940008030831603178800043083160313890040
:10195000831203131F08C3391C389F00D42C83162D
:1019600003178801D42C831203133308003A031998
:10197000BA2CAF2C3208003A0319392C013A03195A
:10198000462C033A0319552C013A0319642C073AE3
:101990000319732C013A0319822C033A0319912C71
:1019A000013A0319A02CAF2C831203131F083F39EF
:1019B00080389F00831603139F131F129F128312F8
:1019C00003131F140C130D3083120313B500FB30E7
:1019D000B400B40BE92CB50BE92C080083160317EF
:1019E000170883160313A700831603171608831618
:1019F0000313A60083160317150883160313A50007
:101A000083160317140883160313A4008316031701
:101A10001B0883160313AB00831603171A088316DB
:101A20000313AA0083160317190883160313A900CA
:101A300083160317180883160313A8000A168A11C1
:101A40003A260A128A15831603132708C9002608A6
:101A5000C8002508C7002408C600831603171F08FE
:101A600083160313A700831603171E088316031398
:101A7000A600831603171D0883160313A5008316FB
:101A800003171C0883160313A400831603172308E7
:101A900083160313AB008316031722088316031360
:101AA000AA0083160317210883160313A9008316BF
:101AB0000317200883160313A8000A168A113A2672
:101AC0000A128A15831603132708AF002608AE00F2
:101AD0002508AD002408AC008316031717088316E9
:101AE0000313A70083160317160883160313A60013
:101AF00083160317150883160313A500831603170F
:101B0000140883160313A4008316031713088316FF
:101B10000313AB0083160317120883160313AA00DE
:101B200083160317110883160313A90083160317DE
:101B3000100883160313A8000A168A113A260A12FF
:101B40008A15831603132708B3002608B200250858
:101B5000B1002408B0000A128A1124200A128A1542
:101B6000831603132F08CD002E08CC002D08CB00C0
:101B70002C08CA000A128A152D260A128A15831605
:101B800003134908E7004808E6004708E50046084F
:101B9000E400831603171F0883120313BE00831685
:101BA00003171E0883120313BD00831603171D08B5
:101BB00083120313BC00831603171C08831203133C
:101BC000BB0083160313670883120313C200831636
:101BD0000313660883120313C100831603136508F9
:101BE00083120313C00083160313640883120313C4
:101BF000BF000A128A11C3230A128A158312031323
:101C00003E0883160313E300831203133D08831673
:101C10000313E200831203133C0883160313E1004D
:101C2000831203133B0883160313E0006308831633
:101C30000317930083160313620883160317920099
:101C40008316031361088316031791008316031389
:101C500060088316031790000800831603134D08CD
:101C60008039D7004D08CE004E07DE00CC1F392E3C
:101C70003A2E3B2E5E145E0803193F2E402E502E46
:101C80005E0A031D442E452E4D2E0030CD0000303F
:101C9000CC000030CB000030CA00CC17CD01582E4C
:101CA0000030CD000030CC000030CB000030CA0046
:101CB00049088039CE004E08D7064908CE004E07A5
:101CC000DF00C81F642E652E662E5F145F0803199F
:101CD0006A2E6B2E7B2E5F0A031D6F2E702E782EC0
:101CE0000030C9000030C8000030C7000030C60016
:101CF000C817C901832E0030C9000030C800003069
:101D0000C7000030C6004908480447044604031DC4
:101D10008A2E8B2EA42E0030CD000030CC00003057
:101D2000CB000030CA008030CC047F30CD0457088F
:101D3000CE004E08CD044D08C9004C08C8004B0821
:101D4000C7004A08C600FF2F5E08031DA82EA92E53
:101D5000B22E0030C9000030C8000030C70000308B
:101D6000C600FF2F5E08CE00CF014F08D1005F08EC
:101D70004E02D000031CD10350087F3ED80051080A
:101D80000318013E003ED9004D08D6004C08D5008E
:101D90004B08D4004A08D3000030CD000030CC00FE
:101DA0000030CB000030CA000030DD000030DC0025
:101DB0000030DB000030DA00DF01282F5F08031954
:101DC000E22EE32E032F0130CE000310D30DD40DED
:101DD000D50DD60DCE0BE52E0130CE000310CA0D69
:101DE000CB0DCC0DCD0DCE0BEE2EDD1FF82EF92E2A
:101DF000FA2E4A140130CE000310DA0DDB0DDC0D93
:101E0000DD0DCE0BFC2E49085602031D112F48088C
:101E10005502031D112F47085402031D112F4608B8
:101E20005302031C142F152F242F5D174608D302CD
:101E30004708031C470FD4024808031C480FD5026B
:101E40004908031C490FD6020130CE004E08DF07B7
:101E50001A305F02031C2D2F2E2FDE2E560855043C
:101E6000540453040319352F362F552F5A14552F68
:101E70000130CE000310CA0DCB0DCC0DCD0DCE0B15
:101E80003A2FDD1F442F452F462F4A140130CE0034
:101E90000310DA0DDB0DDC0DDD0DCE0B482FFF300E
:101EA000D8070318D90AFF30D907CC1F582F592F4C
:101EB000382FDF01DD1F5D2F5E2F7A2FFF305A058F
:101EC000CE00FF305B05CF00FF305C05D0007F30D7
:101ED0005D05D100510850044F044E040319712FC1
:101EE000722F752FDF01DF0A7A2F4A1C782F792F86
:101EF0007A2F722F5F0803197E2F7F2FB02F0130AA
:101F0000CA07003003180130CB0700300318013036
:101F1000CC07003003180130CD074D1C902F912FB6
:101F2000B02F4A08CE004B08CF004C08D0004D0817
:101F3000D1000130D200510DD10CD00CCF0CCE0C01
:101F4000D20B9B2F5108CD005008CC004F08CB007E
:101F50004E08CA000130D8070318D90A0030D90743
:101F60005908803AFF0080307F02031DB92FFF30EF
:101F70005802031CBC2FBD2FCB2FFF308316031339
:101F8000D8000030D9000030CD000030CC00003047
:101F9000CB000030CA00831603135908803AFF00B3
:101FA00080307F02031DD62F013058020318D92F2D
:101FB000DA2FE72F83160313D801D9010030CD00A3
:101FC0000030CC000030CB000030CA00D7018316AF
:101FD00003135808DE005E1CEE2FEF2FF12FCC17F5
:101FE000F52F7F30CE004E08CC055E08CE000310E2
:101FF0004E0CCD005708CE004E08CD049B2E080095
:1020000010308A000408840A8207003456346F3482
:102010006C34743461346A346534203450346F3431
:10202000743465346E34633469346F346D346534BC
:10203000743472346F343A34003450346F3474343E
:1020400031343A34203420344334503455343A3423
:0A2050000034203420342034003422
:1029C800F000831203130C1EEA2CEB2CE52C700884
:1029D80099000800831203139F18F32CF42C002D80
:1029E8009F14063083120313B3002F30B200B20BCA
:1029F800FB2CB30BFB2C002D080083120313B6002D
:102A0800091436080A128A15C2210A168A11831275
:102A180003138914193083120313B500B50B122D53
:102A2800152D8312031389100800831203138517C9
:102A38002B301A06031D212D222D272D05175D0881
:102A4800013EDD00312D2D301A06031D2C2D2D2DB4
:102A5800312D05135D08FF3EDD005D080800831277
:102A68000313B700091037080A128A15C2210A167B
:102A78008A118312031389140B3083120313B600CF
:102A88006130B500B50B462DB60B462D4B2D831284
:102A98000313891008008316031788018901831618
:102AA8000313850183120313850183160313880119
:102AB80089018312031388017030831603138F046E
:102AC8000F148B178C16831203138C120B17080024
:102AD800F2007E2D720884000A168A1100200A1658
:102AE8008A110A168A11E4240A168A110130F100A3
:102AF8007108F207720884000A168A1100200A1663
:102B08008A11003A031D892D8A2D6E2D0800831223
:102B18000313B9003903031D922D932D9D2D3808F9
:102B28007F3EBA003A080A168A1133250A168A1116
:102B3800AC2D02303906031DA22DA32DAC2D38086B
:102B4800BF3EBA003A080A168A1133250A168A11B6
:102B5800080083120313B900B701B801C82D37085C
:102B6800390784000A168A1100200A168A110A16E3
:102B78008A1101250A168A11013083120313B70737
:102B88000318B80A0030B8073708390784000A164E
:102B98008A1100200A168A11003A031DD42DD52D5A
:102BA800B32D080083120313BA00B601B701320827
:102BB800B400B5013408B8003508B9003A1CE52D51
:102BC800E62DEC2D3808B6070318B70A3908B707F9
:102BD80001300310B80DB90DFF3E031DED2D031094
:102BE800BA0C3A08031DF92DFA2DE22D3708B30067
:102BF8003608B20008000C1F022E032E042E0C13F8
:102C08008C1E072E082E2F2E1A08880030301A0620
:102C1800031D0F2E102E212E01300A168A116C2545
:102C28000A168A11831203135208A5005108A4003A
:102C38000A128A15DE200A168A110A168A1119251F
:102C48000A168A1183120313AC00AD012C08CD00BB
:102C58002D08CE008C123108FF0030088A002F089A
:102C680084002E0E8300FE0E7E0E0900803083162F
:102C78000313A7062B0883120313BE00831603133E
:102C88002A0883120313BD0083160313290883122D
:102C98000313BC0083160313280883120313BB0015
:102CA80083160313270883120313C2008316031322
:102CB800260883120313C100831603132508831201
:102CC8000313C00083160313240883120313BF00E1
:102CD8000A128A11C3230A168A11831203133E08A3
:102CE80083160313A700831203133D0883160313E7
:102CF800A600831203133C0883160313A50083124E
:102D080003133B0883160313A4000800F601F31FFE
:102D18008E2E8F2E962EF209F309F20A0319F30A62
:102D2800F601F60AF11F992E9A2E9F2EF009F10945
:102D3800F00A0319F10A700871040319A42EA52ECC
:102D4800D42EF501F50AB32E01300310F00DF10D64
:102D5800FF3E031DA92E0130F4007408F507F11F8A
:102D6800B62EB72EA82E71087302031DBD2E70084B
:102D78007202031CC02EC12EC72E7008F202710801
:102D8800031CF303F30201300310F10CF00CFF3EB7
:102D9800031DC82E0130F502031DD32ED42EB72EE5
:102DA80076080319D82ED92EDE2EF209F309F20A75
:102DB8000319F30A7308F1007208F000080083127F
:102DC80003134108B2004208B300B401B501003052
:102DD800B9007A30B8001230B7000030B6000A12D5
:102DE8008A15DA220A168A11831203133508C600D7
:102DF8003408C5003308C4003208C3000030B500E9
:102E08000030B4000030B3004030B2004608B900CA
:102E18004508B8004408B7004308B6000A128A15E6
:102E2800DA220A168A11831203133208FF3EC700FA
:102E380033080318013EFF3EC800470883160313F2
:102E48009900831203134808831603139A00181174
:102E5800831603178711831603131812831203139B
:102E6800981783160313981683120313181608006D
:102E780083120313B801B51F422F432F4A2FB409F9
:102E8800B509B40A0319B50AB801B80AB31F4D2F1A
:102E98004E2F532FB209B309B20A0319B30A3208E5
:102EA80033040319582F592F882FB701B70A672FF2
:102EB80001300310B20DB30DFF3E031D5D2F01302D
:102EC800B6003608B707B31F6A2F6B2F5C2F33087D
:102ED8003502031D712F32083402031C742F752F1D
:102EE8007B2F3208B4023308031CB503B502013046
:102EF8000310B30CB20CFF3E031D7C2F0130B70248
:102F0800031D872F882F6B2F380803198C2F8D2FBF
:102F1800922FB409B509B40A0319B50A3508B300E4
:102F28003408B200080083120313A101F81F9D2F73
:102F38009E2FA52FF709F809F70A0319F80AA10126
:102F4800A10AFA1FA82FA92FB22FF909FA09F90A1D
:102F58000319FA0A0130FB007B08A106A201A301AC
:102F6800770878040319B92FBA2FF12FA001A00A06
:102F7800C82F01300310F70DF80DFF3E031DBE2FBB
:102F88000130FB007B08A007F81FCB2FCC2FBD2FEB
:102F980001300310A20DA30DFF3E031DCD2F7808AD
:102FA8007A02031DD92F77087902031CDC2FDD2F45
:102FB800E42F7708F9027808031CFA03FA022214AE
:102FC80001300310F80CF70CFF3E031DE52F01300C
:102FD800A002031DF02FF12FCC2F21080319F52F84
:102FE800F62FFB2FA209A309A20A0319A30A230893
:082FF800F8002208F7000800B0
:08400000FF3FFF3FFF3FFF3FC0
:04400E00D420FF3F7C
:00000001FF
